{
	"_format": "hh-sol-artifact-1",
	"contractName": "ZombieBattle",
	"sourceName": "contracts/ZombieBattle.sol",
	"abi": [
		{
			"inputs": [
				{
					"internalType": "address",
					"name": "initialOwner",
					"type": "address"
				}
			],
			"stateMutability": "nonpayable",
			"type": "constructor"
		},
		{
			"inputs": [
				{
					"internalType": "address",
					"name": "sender",
					"type": "address"
				},
				{
					"internalType": "uint256",
					"name": "tokenId",
					"type": "uint256"
				},
				{
					"internalType": "address",
					"name": "owner",
					"type": "address"
				}
			],
			"name": "ERC721IncorrectOwner",
			"type": "error"
		},
		{
			"inputs": [
				{
					"internalType": "address",
					"name": "operator",
					"type": "address"
				},
				{
					"internalType": "uint256",
					"name": "tokenId",
					"type": "uint256"
				}
			],
			"name": "ERC721InsufficientApproval",
			"type": "error"
		},
		{
			"inputs": [
				{
					"internalType": "address",
					"name": "approver",
					"type": "address"
				}
			],
			"name": "ERC721InvalidApprover",
			"type": "error"
		},
		{
			"inputs": [
				{
					"internalType": "address",
					"name": "operator",
					"type": "address"
				}
			],
			"name": "ERC721InvalidOperator",
			"type": "error"
		},
		{
			"inputs": [
				{
					"internalType": "address",
					"name": "owner",
					"type": "address"
				}
			],
			"name": "ERC721InvalidOwner",
			"type": "error"
		},
		{
			"inputs": [
				{
					"internalType": "address",
					"name": "receiver",
					"type": "address"
				}
			],
			"name": "ERC721InvalidReceiver",
			"type": "error"
		},
		{
			"inputs": [
				{
					"internalType": "address",
					"name": "sender",
					"type": "address"
				}
			],
			"name": "ERC721InvalidSender",
			"type": "error"
		},
		{
			"inputs": [
				{
					"internalType": "uint256",
					"name": "tokenId",
					"type": "uint256"
				}
			],
			"name": "ERC721NonexistentToken",
			"type": "error"
		},
		{
			"inputs": [],
			"name": "EnforcedPause",
			"type": "error"
		},
		{
			"inputs": [],
			"name": "ExpectedPause",
			"type": "error"
		},
		{
			"inputs": [
				{
					"internalType": "address",
					"name": "owner",
					"type": "address"
				}
			],
			"name": "OwnableInvalidOwner",
			"type": "error"
		},
		{
			"inputs": [
				{
					"internalType": "address",
					"name": "account",
					"type": "address"
				}
			],
			"name": "OwnableUnauthorizedAccount",
			"type": "error"
		},
		{
			"anonymous": false,
			"inputs": [
				{
					"indexed": true,
					"internalType": "address",
					"name": "owner",
					"type": "address"
				},
				{
					"indexed": true,
					"internalType": "address",
					"name": "approved",
					"type": "address"
				},
				{
					"indexed": true,
					"internalType": "uint256",
					"name": "tokenId",
					"type": "uint256"
				}
			],
			"name": "Approval",
			"type": "event"
		},
		{
			"anonymous": false,
			"inputs": [
				{
					"indexed": true,
					"internalType": "address",
					"name": "owner",
					"type": "address"
				},
				{
					"indexed": true,
					"internalType": "address",
					"name": "operator",
					"type": "address"
				},
				{
					"indexed": false,
					"internalType": "bool",
					"name": "approved",
					"type": "bool"
				}
			],
			"name": "ApprovalForAll",
			"type": "event"
		},
		{
			"anonymous": false,
			"inputs": [
				{
					"indexed": false,
					"internalType": "uint256",
					"name": "zombieId",
					"type": "uint256"
				},
				{
					"indexed": false,
					"internalType": "string",
					"name": "name",
					"type": "string"
				},
				{
					"indexed": false,
					"internalType": "uint256",
					"name": "dna",
					"type": "uint256"
				}
			],
			"name": "NewZombie",
			"type": "event"
		},
		{
			"anonymous": false,
			"inputs": [
				{
					"indexed": true,
					"internalType": "address",
					"name": "previousOwner",
					"type": "address"
				},
				{
					"indexed": true,
					"internalType": "address",
					"name": "newOwner",
					"type": "address"
				}
			],
			"name": "OwnershipTransferred",
			"type": "event"
		},
		{
			"anonymous": false,
			"inputs": [
				{
					"indexed": false,
					"internalType": "address",
					"name": "account",
					"type": "address"
				}
			],
			"name": "Paused",
			"type": "event"
		},
		{
			"anonymous": false,
			"inputs": [
				{
					"indexed": true,
					"internalType": "address",
					"name": "from",
					"type": "address"
				},
				{
					"indexed": true,
					"internalType": "address",
					"name": "to",
					"type": "address"
				},
				{
					"indexed": true,
					"internalType": "uint256",
					"name": "tokenId",
					"type": "uint256"
				}
			],
			"name": "Transfer",
			"type": "event"
		},
		{
			"anonymous": false,
			"inputs": [
				{
					"indexed": false,
					"internalType": "address",
					"name": "account",
					"type": "address"
				}
			],
			"name": "Unpaused",
			"type": "event"
		},
		{
			"inputs": [
				{
					"internalType": "address",
					"name": "to",
					"type": "address"
				},
				{
					"internalType": "uint256",
					"name": "tokenId",
					"type": "uint256"
				}
			],
			"name": "approve",
			"outputs": [],
			"stateMutability": "nonpayable",
			"type": "function"
		},
		{
			"inputs": [
				{
					"internalType": "uint256",
					"name": "_zombieId",
					"type": "uint256"
				},
				{
					"internalType": "uint256",
					"name": "_targetId",
					"type": "uint256"
				}
			],
			"name": "attack",
			"outputs": [],
			"stateMutability": "nonpayable",
			"type": "function"
		},
		{
			"inputs": [
				{
					"internalType": "address",
					"name": "owner",
					"type": "address"
				}
			],
			"name": "balanceOf",
			"outputs": [
				{
					"internalType": "uint256",
					"name": "",
					"type": "uint256"
				}
			],
			"stateMutability": "view",
			"type": "function"
		},
		{
			"inputs": [
				{
					"internalType": "uint256",
					"name": "_zombieId",
					"type": "uint256"
				},
				{
					"internalType": "uint256",
					"name": "_newDna",
					"type": "uint256"
				}
			],
			"name": "changeDna",
			"outputs": [],
			"stateMutability": "nonpayable",
			"type": "function"
		},
		{
			"inputs": [
				{
					"internalType": "uint256",
					"name": "_zombieId",
					"type": "uint256"
				},
				{
					"internalType": "string",
					"name": "_newName",
					"type": "string"
				}
			],
			"name": "changeName",
			"outputs": [],
			"stateMutability": "nonpayable",
			"type": "function"
		},
		{
			"inputs": [
				{
					"internalType": "address",
					"name": "_owner",
					"type": "address"
				}
			],
			"name": "createRandomZombie",
			"outputs": [],
			"stateMutability": "nonpayable",
			"type": "function"
		},
		{
			"inputs": [
				{
					"internalType": "uint256",
					"name": "tokenId",
					"type": "uint256"
				}
			],
			"name": "getApproved",
			"outputs": [
				{
					"internalType": "address",
					"name": "",
					"type": "address"
				}
			],
			"stateMutability": "view",
			"type": "function"
		},
		{
			"inputs": [
				{
					"internalType": "address",
					"name": "_owner",
					"type": "address"
				}
			],
			"name": "getZombieListByOwner",
			"outputs": [
				{
					"components": [
						{
							"internalType": "string",
							"name": "name",
							"type": "string"
						},
						{
							"internalType": "uint256",
							"name": "dna",
							"type": "uint256"
						},
						{
							"internalType": "uint32",
							"name": "level",
							"type": "uint32"
						},
						{
							"internalType": "uint32",
							"name": "readyTime",
							"type": "uint32"
						},
						{
							"internalType": "uint16",
							"name": "winCount",
							"type": "uint16"
						},
						{
							"internalType": "uint16",
							"name": "lossCount",
							"type": "uint16"
						}
					],
					"internalType": "struct ZombieFactory.Zombie[]",
					"name": "",
					"type": "tuple[]"
				}
			],
			"stateMutability": "view",
			"type": "function"
		},
		{
			"inputs": [
				{
					"internalType": "address",
					"name": "_owner",
					"type": "address"
				}
			],
			"name": "getZombiesByOwner",
			"outputs": [
				{
					"internalType": "uint256[]",
					"name": "",
					"type": "uint256[]"
				}
			],
			"stateMutability": "view",
			"type": "function"
		},
		{
			"inputs": [
				{
					"internalType": "address",
					"name": "owner",
					"type": "address"
				},
				{
					"internalType": "address",
					"name": "operator",
					"type": "address"
				}
			],
			"name": "isApprovedForAll",
			"outputs": [
				{
					"internalType": "bool",
					"name": "",
					"type": "bool"
				}
			],
			"stateMutability": "view",
			"type": "function"
		},
		{
			"inputs": [],
			"name": "maxZombiePerWallet",
			"outputs": [
				{
					"internalType": "uint256",
					"name": "",
					"type": "uint256"
				}
			],
			"stateMutability": "view",
			"type": "function"
		},
		{
			"inputs": [],
			"name": "name",
			"outputs": [
				{
					"internalType": "string",
					"name": "",
					"type": "string"
				}
			],
			"stateMutability": "view",
			"type": "function"
		},
		{
			"inputs": [],
			"name": "owner",
			"outputs": [
				{
					"internalType": "address",
					"name": "",
					"type": "address"
				}
			],
			"stateMutability": "view",
			"type": "function"
		},
		{
			"inputs": [
				{
					"internalType": "uint256",
					"name": "tokenId",
					"type": "uint256"
				}
			],
			"name": "ownerOf",
			"outputs": [
				{
					"internalType": "address",
					"name": "",
					"type": "address"
				}
			],
			"stateMutability": "view",
			"type": "function"
		},
		{
			"inputs": [],
			"name": "paused",
			"outputs": [
				{
					"internalType": "bool",
					"name": "",
					"type": "bool"
				}
			],
			"stateMutability": "view",
			"type": "function"
		},
		{
			"inputs": [],
			"name": "renounceOwnership",
			"outputs": [],
			"stateMutability": "nonpayable",
			"type": "function"
		},
		{
			"inputs": [
				{
					"internalType": "address",
					"name": "from",
					"type": "address"
				},
				{
					"internalType": "address",
					"name": "to",
					"type": "address"
				},
				{
					"internalType": "uint256",
					"name": "tokenId",
					"type": "uint256"
				}
			],
			"name": "safeTransferFrom",
			"outputs": [],
			"stateMutability": "nonpayable",
			"type": "function"
		},
		{
			"inputs": [
				{
					"internalType": "address",
					"name": "from",
					"type": "address"
				},
				{
					"internalType": "address",
					"name": "to",
					"type": "address"
				},
				{
					"internalType": "uint256",
					"name": "tokenId",
					"type": "uint256"
				},
				{
					"internalType": "bytes",
					"name": "data",
					"type": "bytes"
				}
			],
			"name": "safeTransferFrom",
			"outputs": [],
			"stateMutability": "nonpayable",
			"type": "function"
		},
		{
			"inputs": [
				{
					"internalType": "address",
					"name": "operator",
					"type": "address"
				},
				{
					"internalType": "bool",
					"name": "approved",
					"type": "bool"
				}
			],
			"name": "setApprovalForAll",
			"outputs": [],
			"stateMutability": "nonpayable",
			"type": "function"
		},
		{
			"inputs": [
				{
					"internalType": "uint256",
					"name": "_fee",
					"type": "uint256"
				}
			],
			"name": "setLevelUpFee",
			"outputs": [],
			"stateMutability": "nonpayable",
			"type": "function"
		},
		{
			"inputs": [
				{
					"internalType": "bytes4",
					"name": "interfaceId",
					"type": "bytes4"
				}
			],
			"name": "supportsInterface",
			"outputs": [
				{
					"internalType": "bool",
					"name": "",
					"type": "bool"
				}
			],
			"stateMutability": "view",
			"type": "function"
		},
		{
			"inputs": [],
			"name": "symbol",
			"outputs": [
				{
					"internalType": "string",
					"name": "",
					"type": "string"
				}
			],
			"stateMutability": "view",
			"type": "function"
		},
		{
			"inputs": [
				{
					"internalType": "uint256",
					"name": "tokenId",
					"type": "uint256"
				}
			],
			"name": "tokenURI",
			"outputs": [
				{
					"internalType": "string",
					"name": "",
					"type": "string"
				}
			],
			"stateMutability": "view",
			"type": "function"
		},
		{
			"inputs": [
				{
					"internalType": "address",
					"name": "from",
					"type": "address"
				},
				{
					"internalType": "address",
					"name": "to",
					"type": "address"
				},
				{
					"internalType": "uint256",
					"name": "tokenId",
					"type": "uint256"
				}
			],
			"name": "transferFrom",
			"outputs": [],
			"stateMutability": "nonpayable",
			"type": "function"
		},
		{
			"inputs": [
				{
					"internalType": "address",
					"name": "newOwner",
					"type": "address"
				}
			],
			"name": "transferOwnership",
			"outputs": [],
			"stateMutability": "nonpayable",
			"type": "function"
		},
		{
			"inputs": [],
			"name": "withdraw",
			"outputs": [],
			"stateMutability": "payable",
			"type": "function"
		},
		{
			"inputs": [
				{
					"internalType": "address",
					"name": "",
					"type": "address"
				},
				{
					"internalType": "uint256",
					"name": "",
					"type": "uint256"
				}
			],
			"name": "zombieList",
			"outputs": [
				{
					"internalType": "string",
					"name": "name",
					"type": "string"
				},
				{
					"internalType": "uint256",
					"name": "dna",
					"type": "uint256"
				},
				{
					"internalType": "uint32",
					"name": "level",
					"type": "uint32"
				},
				{
					"internalType": "uint32",
					"name": "readyTime",
					"type": "uint32"
				},
				{
					"internalType": "uint16",
					"name": "winCount",
					"type": "uint16"
				},
				{
					"internalType": "uint16",
					"name": "lossCount",
					"type": "uint16"
				}
			],
			"stateMutability": "view",
			"type": "function"
		},
		{
			"inputs": [
				{
					"internalType": "uint256",
					"name": "",
					"type": "uint256"
				}
			],
			"name": "zombieToOwner",
			"outputs": [
				{
					"internalType": "address",
					"name": "",
					"type": "address"
				}
			],
			"stateMutability": "view",
			"type": "function"
		},
		{
			"inputs": [
				{
					"internalType": "uint256",
					"name": "",
					"type": "uint256"
				}
			],
			"name": "zombies",
			"outputs": [
				{
					"internalType": "string",
					"name": "name",
					"type": "string"
				},
				{
					"internalType": "uint256",
					"name": "dna",
					"type": "uint256"
				},
				{
					"internalType": "uint32",
					"name": "level",
					"type": "uint32"
				},
				{
					"internalType": "uint32",
					"name": "readyTime",
					"type": "uint32"
				},
				{
					"internalType": "uint16",
					"name": "winCount",
					"type": "uint16"
				},
				{
					"internalType": "uint16",
					"name": "lossCount",
					"type": "uint16"
				}
			],
			"stateMutability": "view",
			"type": "function"
		}
	],
	"bytecode": "0x608060405260036008556010600955600954600a6200001f919062000404565b600a55603c600b5566038d7ea4c68000601055600060115560466012553480156200004957600080fd5b5060405162004b4338038062004b4383398181016040528101906200006f9190620004bf565b808080806040518060400160405280600d81526020017f5a6f6d626965466163746f7279000000000000000000000000000000000000008152506040518060400160405280600381526020017f5a464300000000000000000000000000000000000000000000000000000000008152508160009081620000f0919062000761565b50806001908162000102919062000761565b505050600073ffffffffffffffffffffffffffffffffffffffff168173ffffffffffffffffffffffffffffffffffffffff16036200017a5760006040517f1e4fbdf700000000000000000000000000000000000000000000000000000000815260040162000171919062000859565b60405180910390fd5b6200018b81620001b160201b60201c565b506000600660146101000a81548160ff0219169083151502179055505050505062000876565b6000600660009054906101000a900473ffffffffffffffffffffffffffffffffffffffff16905081600660006101000a81548173ffffffffffffffffffffffffffffffffffffffff021916908373ffffffffffffffffffffffffffffffffffffffff1602179055508173ffffffffffffffffffffffffffffffffffffffff168173ffffffffffffffffffffffffffffffffffffffff167f8be0079c531659141344cd1fd0a4f28419497f9722a3daafe3b4186f6b6457e060405160405180910390a35050565b7f4e487b7100000000000000000000000000000000000000000000000000000000600052601160045260246000fd5b60008160011c9050919050565b6000808291508390505b60018511156200030557808604811115620002dd57620002dc62000277565b5b6001851615620002ed5780820291505b8081029050620002fd85620002a6565b9450620002bd565b94509492505050565b600082620003205760019050620003f3565b81620003305760009050620003f3565b816001811462000349576002811462000354576200038a565b6001915050620003f3565b60ff84111562000369576200036862000277565b5b8360020a91508482111562000383576200038262000277565b5b50620003f3565b5060208310610133831016604e8410600b8410161715620003c45782820a905083811115620003be57620003bd62000277565b5b620003f3565b620003d38484846001620002b3565b92509050818404811115620003ed57620003ec62000277565b5b81810290505b9392505050565b6000819050919050565b60006200041182620003fa565b91506200041e83620003fa565b92506200044d7fffffffffffffffffffffffffffffffffffffffffffffffffffffffffffffffff84846200030e565b905092915050565b600080fd5b600073ffffffffffffffffffffffffffffffffffffffff82169050919050565b600062000487826200045a565b9050919050565b62000499816200047a565b8114620004a557600080fd5b50565b600081519050620004b9816200048e565b92915050565b600060208284031215620004d857620004d762000455565b5b6000620004e884828501620004a8565b91505092915050565b600081519050919050565b7f4e487b7100000000000000000000000000000000000000000000000000000000600052604160045260246000fd5b7f4e487b7100000000000000000000000000000000000000000000000000000000600052602260045260246000fd5b600060028204905060018216806200057357607f821691505b6020821081036200058957620005886200052b565b5b50919050565b60008190508160005260206000209050919050565b60006020601f8301049050919050565b600082821b905092915050565b600060088302620005f37fffffffffffffffffffffffffffffffffffffffffffffffffffffffffffffffff82620005b4565b620005ff8683620005b4565b95508019841693508086168417925050509392505050565b6000819050919050565b6000620006426200063c6200063684620003fa565b62000617565b620003fa565b9050919050565b6000819050919050565b6200065e8362000621565b620006766200066d8262000649565b848454620005c1565b825550505050565b600090565b6200068d6200067e565b6200069a81848462000653565b505050565b5b81811015620006c257620006b660008262000683565b600181019050620006a0565b5050565b601f8211156200071157620006db816200058f565b620006e684620005a4565b81016020851015620006f6578190505b6200070e6200070585620005a4565b8301826200069f565b50505b505050565b600082821c905092915050565b6000620007366000198460080262000716565b1980831691505092915050565b600062000751838362000723565b9150826002028217905092915050565b6200076c82620004f1565b67ffffffffffffffff811115620007885762000787620004fc565b5b6200079482546200055a565b620007a1828285620006c6565b600060209050601f831160018114620007d95760008415620007c4578287015190505b620007d0858262000743565b86555062000840565b601f198416620007e9866200058f565b60005b828110156200081357848901518255600182019150602085019450602081019050620007ec565b868310156200083357848901516200082f601f89168262000723565b8355505b6001600288020188555050505b505050505050565b62000853816200047a565b82525050565b600060208201905062000870600083018462000848565b92915050565b6142bd80620008866000396000f3fe6080604052600436106101c25760003560e01c80636352211e116100f7578063b88d4fde11610095578063e1fa763811610064578063e1fa763814610673578063e985e9c51461069c578063f2fde38b146106d9578063f59c5a1b14610702576101c2565b8063b88d4fde146105bb578063c39cbef1146105e4578063c87b56dd1461060d578063ccf670f81461064a576101c2565b8063715018a6116100d1578063715018a6146105255780638da5cb5b1461053c57806395d89b4114610567578063a22cb46514610592576101c2565b80636352211e146104695780636f67a9bd146104a657806370a08231146104e8576101c2565b80633a3d183e116101645780634412e1041161013e5780634412e1041461039b578063528b7b8f146103d85780635c975abb146104155780635faf288014610440576101c2565b80633a3d183e1461033d5780633ccfd60b1461036857806342842e0e14610372576101c2565b8063095ea7b3116101a0578063095ea7b31461026c5780632052465e1461029557806323b872dd146102d7578063392f702e14610300576101c2565b806301ffc9a7146101c757806306fdde0314610204578063081812fc1461022f575b600080fd5b3480156101d357600080fd5b506101ee60048036038101906101e99190612f21565b61072b565b6040516101fb9190612f69565b60405180910390f35b34801561021057600080fd5b5061021961080d565b6040516102269190613014565b60405180910390f35b34801561023b57600080fd5b506102566004803603810190610251919061306c565b61089f565b60405161026391906130da565b60405180910390f35b34801561027857600080fd5b50610293600480360381019061028e9190613121565b6108bb565b005b3480156102a157600080fd5b506102bc60048036038101906102b7919061306c565b6108d1565b6040516102ce969594939291906131ac565b60405180910390f35b3480156102e357600080fd5b506102fe60048036038101906102f99190613214565b6109e1565b005b34801561030c57600080fd5b5061032760048036038101906103229190613267565b610ae3565b6040516103349190613456565b60405180910390f35b34801561034957600080fd5b50610352610ca9565b60405161035f9190613478565b60405180910390f35b610370610caf565b005b34801561037e57600080fd5b5061039960048036038101906103949190613214565b610d02565b005b3480156103a757600080fd5b506103c260048036038101906103bd9190613267565b610d22565b6040516103cf9190613542565b60405180910390f35b3480156103e457600080fd5b506103ff60048036038101906103fa919061306c565b610e74565b60405161040c91906130da565b60405180910390f35b34801561042157600080fd5b5061042a610ea7565b6040516104379190612f69565b60405180910390f35b34801561044c57600080fd5b5061046760048036038101906104629190613564565b610ebe565b005b34801561047557600080fd5b50610490600480360381019061048b919061306c565b610fa6565b60405161049d91906130da565b60405180910390f35b3480156104b257600080fd5b506104cd60048036038101906104c89190613121565b610fb8565b6040516104df969594939291906131ac565b60405180910390f35b3480156104f457600080fd5b5061050f600480360381019061050a9190613267565b6110d5565b60405161051c9190613478565b60405180910390f35b34801561053157600080fd5b5061053a61118f565b005b34801561054857600080fd5b506105516111a3565b60405161055e91906130da565b60405180910390f35b34801561057357600080fd5b5061057c6111cd565b6040516105899190613014565b60405180910390f35b34801561059e57600080fd5b506105b960048036038101906105b491906135d0565b61125f565b005b3480156105c757600080fd5b506105e260048036038101906105dd9190613745565b611275565b005b3480156105f057600080fd5b5061060b60048036038101906106069190613869565b611292565b005b34801561061957600080fd5b50610634600480360381019061062f919061306c565b611383565b6040516106419190613014565b60405180910390f35b34801561065657600080fd5b50610671600480360381019061066c919061306c565b6113ec565b005b34801561067f57600080fd5b5061069a60048036038101906106959190613564565b6113fe565b005b3480156106a857600080fd5b506106c360048036038101906106be91906138c5565b6116db565b6040516106d09190612f69565b60405180910390f35b3480156106e557600080fd5b5061070060048036038101906106fb9190613267565b61176f565b005b34801561070e57600080fd5b5061072960048036038101906107249190613267565b6117f5565b005b60007f80ac58cd000000000000000000000000000000000000000000000000000000007bffffffffffffffffffffffffffffffffffffffffffffffffffffffff1916827bffffffffffffffffffffffffffffffffffffffffffffffffffffffff191614806107f657507f5b5e139f000000000000000000000000000000000000000000000000000000007bffffffffffffffffffffffffffffffffffffffffffffffffffffffff1916827bffffffffffffffffffffffffffffffffffffffffffffffffffffffff1916145b80610806575061080582611895565b5b9050919050565b60606000805461081c90613934565b80601f016020809104026020016040519081016040528092919081815260200182805461084890613934565b80156108955780601f1061086a57610100808354040283529160200191610895565b820191906000526020600020905b81548152906001019060200180831161087857829003601f168201915b5050505050905090565b60006108aa826118ff565b506108b482611987565b9050919050565b6108cd82826108c86119c4565b6119cc565b5050565b600f81815481106108e157600080fd5b906000526020600020906003020160009150905080600001805461090490613934565b80601f016020809104026020016040519081016040528092919081815260200182805461093090613934565b801561097d5780601f106109525761010080835404028352916020019161097d565b820191906000526020600020905b81548152906001019060200180831161096057829003601f168201915b5050505050908060010154908060020160009054906101000a900463ffffffff16908060020160049054906101000a900463ffffffff16908060020160089054906101000a900461ffff169080600201600a9054906101000a900461ffff16905086565b600073ffffffffffffffffffffffffffffffffffffffff168273ffffffffffffffffffffffffffffffffffffffff1603610a535760006040517f64a0ae92000000000000000000000000000000000000000000000000000000008152600401610a4a91906130da565b60405180910390fd5b6000610a678383610a626119c4565b6119de565b90508373ffffffffffffffffffffffffffffffffffffffff168173ffffffffffffffffffffffffffffffffffffffff1614610add578382826040517f64283d7b000000000000000000000000000000000000000000000000000000008152600401610ad493929190613965565b60405180910390fd5b50505050565b6060600e60008373ffffffffffffffffffffffffffffffffffffffff1673ffffffffffffffffffffffffffffffffffffffff168152602001908152602001600020805480602002602001604051908101604052809291908181526020016000905b82821015610c9e57838290600052602060002090600302016040518060c0016040529081600082018054610b7790613934565b80601f0160208091040260200160405190810160405280929190818152602001828054610ba390613934565b8015610bf05780601f10610bc557610100808354040283529160200191610bf0565b820191906000526020600020905b815481529060010190602001808311610bd357829003601f168201915b50505050508152602001600182015481526020016002820160009054906101000a900463ffffffff1663ffffffff1663ffffffff1681526020016002820160049054906101000a900463ffffffff1663ffffffff1663ffffffff1681526020016002820160089054906101000a900461ffff1661ffff1661ffff16815260200160028201600a9054906101000a900461ffff1661ffff1661ffff168152505081526020019060010190610b44565b505050509050919050565b60085481565b610cb76119f4565b600047905060008111610cff576040517f08c379a0000000000000000000000000000000000000000000000000000000008152600401610cf6906139e8565b60405180910390fd5b50565b610d1d83838360405180602001604052806000815250611275565b505050565b60606000600d60008473ffffffffffffffffffffffffffffffffffffffff1673ffffffffffffffffffffffffffffffffffffffff1681526020019081526020016000205467ffffffffffffffff811115610d7f57610d7e61361a565b5b604051908082528060200260200182016040528015610dad5781602001602082028036833780820191505090505b5090506000805b600f80549050811015610e69578473ffffffffffffffffffffffffffffffffffffffff16600c600083815260200190815260200160002060009054906101000a900473ffffffffffffffffffffffffffffffffffffffff1673ffffffffffffffffffffffffffffffffffffffff1603610e565780838381518110610e3b57610e3a613a08565b5b6020026020010181815250508180610e5290613a66565b9250505b8080610e6190613a66565b915050610db4565b508192505050919050565b600c6020528060005260406000206000915054906101000a900473ffffffffffffffffffffffffffffffffffffffff1681565b6000600660149054906101000a900460ff16905090565b60148281600f8281548110610ed657610ed5613a08565b5b906000526020600020906003020160020160009054906101000a900463ffffffff1663ffffffff161015610f0957600080fd5b83600c600082815260200190815260200160002060009054906101000a900473ffffffffffffffffffffffffffffffffffffffff1673ffffffffffffffffffffffffffffffffffffffff163373ffffffffffffffffffffffffffffffffffffffff1614610f7557600080fd5b83600f8681548110610f8a57610f89613a08565b5b9060005260206000209060030201600101819055505050505050565b6000610fb1826118ff565b9050919050565b600e6020528160005260406000208181548110610fd457600080fd5b906000526020600020906003020160009150915050806000018054610ff890613934565b80601f016020809104026020016040519081016040528092919081815260200182805461102490613934565b80156110715780601f1061104657610100808354040283529160200191611071565b820191906000526020600020905b81548152906001019060200180831161105457829003601f168201915b5050505050908060010154908060020160009054906101000a900463ffffffff16908060020160049054906101000a900463ffffffff16908060020160089054906101000a900461ffff169080600201600a9054906101000a900461ffff16905086565b60008073ffffffffffffffffffffffffffffffffffffffff168273ffffffffffffffffffffffffffffffffffffffff16036111485760006040517f89c62b6400000000000000000000000000000000000000000000000000000000815260040161113f91906130da565b60405180910390fd5b600360008373ffffffffffffffffffffffffffffffffffffffff1673ffffffffffffffffffffffffffffffffffffffff168152602001908152602001600020549050919050565b6111976119f4565b6111a16000611a7b565b565b6000600660009054906101000a900473ffffffffffffffffffffffffffffffffffffffff16905090565b6060600180546111dc90613934565b80601f016020809104026020016040519081016040528092919081815260200182805461120890613934565b80156112555780601f1061122a57610100808354040283529160200191611255565b820191906000526020600020905b81548152906001019060200180831161123857829003601f168201915b5050505050905090565b61127161126a6119c4565b8383611b41565b5050565b6112808484846109e1565b61128c84848484611cb0565b50505050565b60028281600f82815481106112aa576112a9613a08565b5b906000526020600020906003020160020160009054906101000a900463ffffffff1663ffffffff1610156112dd57600080fd5b83600c600082815260200190815260200160002060009054906101000a900473ffffffffffffffffffffffffffffffffffffffff1673ffffffffffffffffffffffffffffffffffffffff163373ffffffffffffffffffffffffffffffffffffffff161461134957600080fd5b83600f868154811061135e5761135d613a08565b5b9060005260206000209060030201600001908161137b9190613c5a565b505050505050565b606061138e826118ff565b506000611399611e67565b905060008151116113b957604051806020016040528060008152506113e4565b806113c384611e7e565b6040516020016113d4929190613d68565b6040516020818303038152906040525b915050919050565b6113f46119f4565b8060108190555050565b81600c600082815260200190815260200160002060009054906101000a900473ffffffffffffffffffffffffffffffffffffffff1673ffffffffffffffffffffffffffffffffffffffff163373ffffffffffffffffffffffffffffffffffffffff161461146a57600080fd5b8282036114ac576040517f08c379a00000000000000000000000000000000000000000000000000000000081526004016114a390613dd8565b60405180910390fd5b6000600f84815481106114c2576114c1613a08565b5b906000526020600020906003020190506000600f84815481106114e8576114e7613a08565b5b906000526020600020906003020190506000611504603c611f4c565b905060125481116116155782600201600081819054906101000a900463ffffffff168092919061153390613df8565b91906101000a81548163ffffffff021916908363ffffffff1602179055505082600201600881819054906101000a900461ffff168092919061157490613e24565b91906101000a81548161ffff021916908361ffff1602179055505081600201600a81819054906101000a900461ffff16809291906115b190613e24565b91906101000a81548161ffff021916908361ffff160217905550506116108683600101546040518060400160405280600681526020017f7a6f6d6269650000000000000000000000000000000000000000000000000000815250611fa8565b6116d3565b82600201600a81819054906101000a900461ffff168092919061163790613e24565b91906101000a81548161ffff021916908361ffff1602179055505081600201600881819054906101000a900461ffff168092919061167490613e24565b91906101000a81548161ffff021916908361ffff1602179055505081600201600081819054906101000a900463ffffffff16809291906116b390613df8565b91906101000a81548163ffffffff021916908363ffffffff160217905550505b505050505050565b6000600560008473ffffffffffffffffffffffffffffffffffffffff1673ffffffffffffffffffffffffffffffffffffffff16815260200190815260200160002060008373ffffffffffffffffffffffffffffffffffffffff1673ffffffffffffffffffffffffffffffffffffffff16815260200190815260200160002060009054906101000a900460ff16905092915050565b6117776119f4565b600073ffffffffffffffffffffffffffffffffffffffff168173ffffffffffffffffffffffffffffffffffffffff16036117e95760006040517f1e4fbdf70000000000000000000000000000000000000000000000000000000081526004016117e091906130da565b60405180910390fd5b6117f281611a7b565b50565b60006118356040518060400160405280600681526020017f4e6f4e616d65000000000000000000000000000000000000000000000000000081525061217b565b90506064816118449190613e7d565b8161184f9190613eae565b9050611891826040518060400160405280600681526020017f4e6f4e616d650000000000000000000000000000000000000000000000000000815250836121c0565b5050565b60007f01ffc9a7000000000000000000000000000000000000000000000000000000007bffffffffffffffffffffffffffffffffffffffffffffffffffffffff1916827bffffffffffffffffffffffffffffffffffffffffffffffffffffffff1916149050919050565b60008061190b8361260f565b9050600073ffffffffffffffffffffffffffffffffffffffff168173ffffffffffffffffffffffffffffffffffffffff160361197e57826040517f7e2732890000000000000000000000000000000000000000000000000000000081526004016119759190613478565b60405180910390fd5b80915050919050565b60006004600083815260200190815260200160002060009054906101000a900473ffffffffffffffffffffffffffffffffffffffff169050919050565b600033905090565b6119d9838383600161264c565b505050565b60006119eb848484612811565b90509392505050565b6119fc6119c4565b73ffffffffffffffffffffffffffffffffffffffff16611a1a6111a3565b73ffffffffffffffffffffffffffffffffffffffff1614611a7957611a3d6119c4565b6040517f118cdaa7000000000000000000000000000000000000000000000000000000008152600401611a7091906130da565b60405180910390fd5b565b6000600660009054906101000a900473ffffffffffffffffffffffffffffffffffffffff16905081600660006101000a81548173ffffffffffffffffffffffffffffffffffffffff021916908373ffffffffffffffffffffffffffffffffffffffff1602179055508173ffffffffffffffffffffffffffffffffffffffff168173ffffffffffffffffffffffffffffffffffffffff167f8be0079c531659141344cd1fd0a4f28419497f9722a3daafe3b4186f6b6457e060405160405180910390a35050565b600073ffffffffffffffffffffffffffffffffffffffff168273ffffffffffffffffffffffffffffffffffffffff1603611bb257816040517f5b08ba18000000000000000000000000000000000000000000000000000000008152600401611ba991906130da565b60405180910390fd5b80600560008573ffffffffffffffffffffffffffffffffffffffff1673ffffffffffffffffffffffffffffffffffffffff16815260200190815260200160002060008473ffffffffffffffffffffffffffffffffffffffff1673ffffffffffffffffffffffffffffffffffffffff16815260200190815260200160002060006101000a81548160ff0219169083151502179055508173ffffffffffffffffffffffffffffffffffffffff168373ffffffffffffffffffffffffffffffffffffffff167f17307eab39ab6107e8899845ad3d59bd9653f200f220920489ca2b5937696c3183604051611ca39190612f69565b60405180910390a3505050565b60008373ffffffffffffffffffffffffffffffffffffffff163b1115611e61578273ffffffffffffffffffffffffffffffffffffffff1663150b7a02611cf46119c4565b8685856040518563ffffffff1660e01b8152600401611d169493929190613f37565b6020604051808303816000875af1925050508015611d5257506040513d601f19601f82011682018060405250810190611d4f9190613f98565b60015b611dd6573d8060008114611d82576040519150601f19603f3d011682016040523d82523d6000602084013e611d87565b606091505b506000815103611dce57836040517f64a0ae92000000000000000000000000000000000000000000000000000000008152600401611dc591906130da565b60405180910390fd5b805181602001fd5b63150b7a0260e01b7bffffffffffffffffffffffffffffffffffffffffffffffffffffffff1916817bffffffffffffffffffffffffffffffffffffffffffffffffffffffff191614611e5f57836040517f64a0ae92000000000000000000000000000000000000000000000000000000008152600401611e5691906130da565b60405180910390fd5b505b50505050565b606060405180602001604052806000815250905090565b606060006001611e8d8461282f565b01905060008167ffffffffffffffff811115611eac57611eab61361a565b5b6040519080825280601f01601f191660200182016040528015611ede5781602001600182028036833780820191505090505b509050600082602001820190505b600115611f41578080600190039150507f3031323334353637383961626364656600000000000000000000000000000000600a86061a8153600a8581611f3557611f34613e4e565b5b04945060008503611eec575b819350505050919050565b600060116000815480929190611f6190613a66565b9190505550814233601154604051602001611f7e9392919061402e565b6040516020818303038152906040528051906020012060001c611fa19190613e7d565b9050919050565b82600c600082815260200190815260200160002060009054906101000a900473ffffffffffffffffffffffffffffffffffffffff1673ffffffffffffffffffffffffffffffffffffffff163373ffffffffffffffffffffffffffffffffffffffff161461201457600080fd5b6000600f858154811061202a57612029613a08565b5b9060005260206000209060030201905061204381612982565b612082576040517f08c379a0000000000000000000000000000000000000000000000000000000008152600401612079906140b7565b60405180910390fd5b600a54846120909190613e7d565b9350600060028583600101546120a691906140d7565b6120b0919061410b565b90506040516020016120c190614188565b60405160208183030381529060405280519060200120846040516020016120e8919061419d565b604051602081830303815290604052805190602001200361212a5760636064826121129190613e7d565b8261211d9190613eae565b61212791906140d7565b90505b61216a336040518060400160405280600681526020017f4e6f4e616d650000000000000000000000000000000000000000000000000000815250836121c0565b612173826129a9565b505050505050565b6000808260405160200161218f919061419d565b6040516020818303038152906040528051906020012060001c9050600a54816121b89190613e7d565b915050919050565b600f6040518060c00160405280848152602001838152602001600163ffffffff168152602001600b54426121f491906140d7565b63ffffffff168152602001600061ffff168152602001600061ffff16815250908060018154018082558091505060019003906000526020600020906003020160009091909190915060008201518160000190816122519190613c5a565b506020820151816001015560408201518160020160006101000a81548163ffffffff021916908363ffffffff16021790555060608201518160020160046101000a81548163ffffffff021916908363ffffffff16021790555060808201518160020160086101000a81548161ffff021916908361ffff16021790555060a082015181600201600a6101000a81548161ffff021916908361ffff160217905550505060006040518060c00160405280848152602001838152602001600163ffffffff168152602001600b544261232691906140d7565b63ffffffff168152602001600061ffff168152602001600061ffff168152509050600e60008573ffffffffffffffffffffffffffffffffffffffff1673ffffffffffffffffffffffffffffffffffffffff16815260200190815260200160002081908060018154018082558091505060019003906000526020600020906003020160009091909190915060008201518160000190816123c59190613c5a565b506020820151816001015560408201518160020160006101000a81548163ffffffff021916908363ffffffff16021790555060608201518160020160046101000a81548163ffffffff021916908363ffffffff16021790555060808201518160020160086101000a81548161ffff021916908361ffff16021790555060a082015181600201600a6101000a81548161ffff021916908361ffff1602179055505050600854600d60003373ffffffffffffffffffffffffffffffffffffffff1673ffffffffffffffffffffffffffffffffffffffff1681526020019081526020016000205411156124ea576040517f08c379a00000000000000000000000000000000000000000000000000000000081526004016124e190614200565b60405180910390fd5b60006001600f805490506124fe9190613eae565b905084600c600083815260200190815260200160002060006101000a81548173ffffffffffffffffffffffffffffffffffffffff021916908373ffffffffffffffffffffffffffffffffffffffff160217905550600d60003373ffffffffffffffffffffffffffffffffffffffff1673ffffffffffffffffffffffffffffffffffffffff16815260200190815260200160002060008154809291906125a290613a66565b91905055506000600760008154809291906125bc90613a66565b9190505590506125cc86826129dc565b7f88f026aacbbecc90c18411df4b1185fd8d9be2470f1962f192bf84a27d0704b78186866040516125ff93929190614220565b60405180910390a1505050505050565b60006002600083815260200190815260200160002060009054906101000a900473ffffffffffffffffffffffffffffffffffffffff169050919050565b80806126855750600073ffffffffffffffffffffffffffffffffffffffff168273ffffffffffffffffffffffffffffffffffffffff1614155b156127b9576000612695846118ff565b9050600073ffffffffffffffffffffffffffffffffffffffff168373ffffffffffffffffffffffffffffffffffffffff161415801561270057508273ffffffffffffffffffffffffffffffffffffffff168173ffffffffffffffffffffffffffffffffffffffff1614155b8015612713575061271181846116db565b155b1561275557826040517fa9fbf51f00000000000000000000000000000000000000000000000000000000815260040161274c91906130da565b60405180910390fd5b81156127b757838573ffffffffffffffffffffffffffffffffffffffff168273ffffffffffffffffffffffffffffffffffffffff167f8c5be1e5ebec7d5bd14f71427d1e84f3dd0314c0f7b2291e5b200ac8c7c3b92560405160405180910390a45b505b836004600085815260200190815260200160002060006101000a81548173ffffffffffffffffffffffffffffffffffffffff021916908373ffffffffffffffffffffffffffffffffffffffff16021790555050505050565b600061281b612ad5565b612826848484612b16565b90509392505050565b600080600090507a184f03e93ff9f4daa797ed6e38ed64bf6a1f010000000000000000831061288d577a184f03e93ff9f4daa797ed6e38ed64bf6a1f010000000000000000838161288357612882613e4e565b5b0492506040810190505b6d04ee2d6d415b85acef810000000083106128ca576d04ee2d6d415b85acef810000000083816128c0576128bf613e4e565b5b0492506020810190505b662386f26fc1000083106128f957662386f26fc1000083816128ef576128ee613e4e565b5b0492506010810190505b6305f5e1008310612922576305f5e100838161291857612917613e4e565b5b0492506008810190505b612710831061294757612710838161293d5761293c613e4e565b5b0492506004810190505b6064831061296a57606483816129605761295f613e4e565b5b0492506002810190505b600a8310612979576001810190505b80915050919050565b6000428260020160049054906101000a900463ffffffff1663ffffffff1611159050919050565b600b54426129b791906140d7565b8160020160046101000a81548163ffffffff021916908363ffffffff16021790555050565b600073ffffffffffffffffffffffffffffffffffffffff168273ffffffffffffffffffffffffffffffffffffffff1603612a4e5760006040517f64a0ae92000000000000000000000000000000000000000000000000000000008152600401612a4591906130da565b60405180910390fd5b6000612a5c838360006119de565b9050600073ffffffffffffffffffffffffffffffffffffffff168173ffffffffffffffffffffffffffffffffffffffff1614612ad05760006040517f73c6ac6e000000000000000000000000000000000000000000000000000000008152600401612ac791906130da565b60405180910390fd5b505050565b612add610ea7565b15612b14576040517fd93c066500000000000000000000000000000000000000000000000000000000815260040160405180910390fd5b565b600080612b228461260f565b9050600073ffffffffffffffffffffffffffffffffffffffff168373ffffffffffffffffffffffffffffffffffffffff1614612b6457612b63818486612d30565b5b600073ffffffffffffffffffffffffffffffffffffffff168173ffffffffffffffffffffffffffffffffffffffff1614612bf557612ba660008560008061264c565b6001600360008373ffffffffffffffffffffffffffffffffffffffff1673ffffffffffffffffffffffffffffffffffffffff168152602001908152602001600020600082825403925050819055505b600073ffffffffffffffffffffffffffffffffffffffff168573ffffffffffffffffffffffffffffffffffffffff1614612c78576001600360008773ffffffffffffffffffffffffffffffffffffffff1673ffffffffffffffffffffffffffffffffffffffff168152602001908152602001600020600082825401925050819055505b846002600086815260200190815260200160002060006101000a81548173ffffffffffffffffffffffffffffffffffffffff021916908373ffffffffffffffffffffffffffffffffffffffff160217905550838573ffffffffffffffffffffffffffffffffffffffff168273ffffffffffffffffffffffffffffffffffffffff167fddf252ad1be2c89b69c2b068fc378daa952ba7f163c4a11628f55a4df523b3ef60405160405180910390a4809150509392505050565b612d3b838383612df4565b612def57600073ffffffffffffffffffffffffffffffffffffffff168373ffffffffffffffffffffffffffffffffffffffff1603612db057806040517f7e273289000000000000000000000000000000000000000000000000000000008152600401612da79190613478565b60405180910390fd5b81816040517f177e802f000000000000000000000000000000000000000000000000000000008152600401612de692919061425e565b60405180910390fd5b505050565b60008073ffffffffffffffffffffffffffffffffffffffff168373ffffffffffffffffffffffffffffffffffffffff1614158015612eac57508273ffffffffffffffffffffffffffffffffffffffff168473ffffffffffffffffffffffffffffffffffffffff161480612e6d5750612e6c84846116db565b5b80612eab57508273ffffffffffffffffffffffffffffffffffffffff16612e9383611987565b73ffffffffffffffffffffffffffffffffffffffff16145b5b90509392505050565b6000604051905090565b600080fd5b600080fd5b60007fffffffff0000000000000000000000000000000000000000000000000000000082169050919050565b612efe81612ec9565b8114612f0957600080fd5b50565b600081359050612f1b81612ef5565b92915050565b600060208284031215612f3757612f36612ebf565b5b6000612f4584828501612f0c565b91505092915050565b60008115159050919050565b612f6381612f4e565b82525050565b6000602082019050612f7e6000830184612f5a565b92915050565b600081519050919050565b600082825260208201905092915050565b60005b83811015612fbe578082015181840152602081019050612fa3565b60008484015250505050565b6000601f19601f8301169050919050565b6000612fe682612f84565b612ff08185612f8f565b9350613000818560208601612fa0565b61300981612fca565b840191505092915050565b6000602082019050818103600083015261302e8184612fdb565b905092915050565b6000819050919050565b61304981613036565b811461305457600080fd5b50565b60008135905061306681613040565b92915050565b60006020828403121561308257613081612ebf565b5b600061309084828501613057565b91505092915050565b600073ffffffffffffffffffffffffffffffffffffffff82169050919050565b60006130c482613099565b9050919050565b6130d4816130b9565b82525050565b60006020820190506130ef60008301846130cb565b92915050565b6130fe816130b9565b811461310957600080fd5b50565b60008135905061311b816130f5565b92915050565b6000806040838503121561313857613137612ebf565b5b60006131468582860161310c565b925050602061315785828601613057565b9150509250929050565b61316a81613036565b82525050565b600063ffffffff82169050919050565b61318981613170565b82525050565b600061ffff82169050919050565b6131a68161318f565b82525050565b600060c08201905081810360008301526131c68189612fdb565b90506131d56020830188613161565b6131e26040830187613180565b6131ef6060830186613180565b6131fc608083018561319d565b61320960a083018461319d565b979650505050505050565b60008060006060848603121561322d5761322c612ebf565b5b600061323b8682870161310c565b935050602061324c8682870161310c565b925050604061325d86828701613057565b9150509250925092565b60006020828403121561327d5761327c612ebf565b5b600061328b8482850161310c565b91505092915050565b600081519050919050565b600082825260208201905092915050565b6000819050602082019050919050565b600082825260208201905092915050565b60006132dc82612f84565b6132e681856132c0565b93506132f6818560208601612fa0565b6132ff81612fca565b840191505092915050565b61331381613036565b82525050565b61332281613170565b82525050565b6133318161318f565b82525050565b600060c083016000830151848203600086015261335482826132d1565b9150506020830151613369602086018261330a565b50604083015161337c6040860182613319565b50606083015161338f6060860182613319565b5060808301516133a26080860182613328565b5060a08301516133b560a0860182613328565b508091505092915050565b60006133cc8383613337565b905092915050565b6000602082019050919050565b60006133ec82613294565b6133f6818561329f565b935083602082028501613408856132b0565b8060005b85811015613444578484038952815161342585826133c0565b9450613430836133d4565b925060208a0199505060018101905061340c565b50829750879550505050505092915050565b6000602082019050818103600083015261347081846133e1565b905092915050565b600060208201905061348d6000830184613161565b92915050565b600081519050919050565b600082825260208201905092915050565b6000819050602082019050919050565b60006134cb838361330a565b60208301905092915050565b6000602082019050919050565b60006134ef82613493565b6134f9818561349e565b9350613504836134af565b8060005b8381101561353557815161351c88826134bf565b9750613527836134d7565b925050600181019050613508565b5085935050505092915050565b6000602082019050818103600083015261355c81846134e4565b905092915050565b6000806040838503121561357b5761357a612ebf565b5b600061358985828601613057565b925050602061359a85828601613057565b9150509250929050565b6135ad81612f4e565b81146135b857600080fd5b50565b6000813590506135ca816135a4565b92915050565b600080604083850312156135e7576135e6612ebf565b5b60006135f58582860161310c565b9250506020613606858286016135bb565b9150509250929050565b600080fd5b600080fd5b7f4e487b7100000000000000000000000000000000000000000000000000000000600052604160045260246000fd5b61365282612fca565b810181811067ffffffffffffffff821117156136715761367061361a565b5b80604052505050565b6000613684612eb5565b90506136908282613649565b919050565b600067ffffffffffffffff8211156136b0576136af61361a565b5b6136b982612fca565b9050602081019050919050565b82818337600083830152505050565b60006136e86136e384613695565b61367a565b90508281526020810184848401111561370457613703613615565b5b61370f8482856136c6565b509392505050565b600082601f83011261372c5761372b613610565b5b813561373c8482602086016136d5565b91505092915050565b6000806000806080858703121561375f5761375e612ebf565b5b600061376d8782880161310c565b945050602061377e8782880161310c565b935050604061378f87828801613057565b925050606085013567ffffffffffffffff8111156137b0576137af612ec4565b5b6137bc87828801613717565b91505092959194509250565b600067ffffffffffffffff8211156137e3576137e261361a565b5b6137ec82612fca565b9050602081019050919050565b600061380c613807846137c8565b61367a565b90508281526020810184848401111561382857613827613615565b5b6138338482856136c6565b509392505050565b600082601f8301126138505761384f613610565b5b81356138608482602086016137f9565b91505092915050565b600080604083850312156138805761387f612ebf565b5b600061388e85828601613057565b925050602083013567ffffffffffffffff8111156138af576138ae612ec4565b5b6138bb8582860161383b565b9150509250929050565b600080604083850312156138dc576138db612ebf565b5b60006138ea8582860161310c565b92505060206138fb8582860161310c565b9150509250929050565b7f4e487b7100000000000000000000000000000000000000000000000000000000600052602260045260246000fd5b6000600282049050600182168061394c57607f821691505b60208210810361395f5761395e613905565b5b50919050565b600060608201905061397a60008301866130cb565b6139876020830185613161565b61399460408301846130cb565b949350505050565b7f62616c616e6365206e6f7420656e6f7567680000000000000000000000000000600082015250565b60006139d2601283612f8f565b91506139dd8261399c565b602082019050919050565b60006020820190508181036000830152613a01816139c5565b9050919050565b7f4e487b7100000000000000000000000000000000000000000000000000000000600052603260045260246000fd5b7f4e487b7100000000000000000000000000000000000000000000000000000000600052601160045260246000fd5b6000613a7182613036565b91507fffffffffffffffffffffffffffffffffffffffffffffffffffffffffffffffff8203613aa357613aa2613a37565b5b600182019050919050565b60008190508160005260206000209050919050565b60006020601f8301049050919050565b600082821b905092915050565b600060088302613b107fffffffffffffffffffffffffffffffffffffffffffffffffffffffffffffffff82613ad3565b613b1a8683613ad3565b95508019841693508086168417925050509392505050565b6000819050919050565b6000613b57613b52613b4d84613036565b613b32565b613036565b9050919050565b6000819050919050565b613b7183613b3c565b613b85613b7d82613b5e565b848454613ae0565b825550505050565b600090565b613b9a613b8d565b613ba5818484613b68565b505050565b5b81811015613bc957613bbe600082613b92565b600181019050613bab565b5050565b601f821115613c0e57613bdf81613aae565b613be884613ac3565b81016020851015613bf7578190505b613c0b613c0385613ac3565b830182613baa565b50505b505050565b600082821c905092915050565b6000613c3160001984600802613c13565b1980831691505092915050565b6000613c4a8383613c20565b9150826002028217905092915050565b613c6382612f84565b67ffffffffffffffff811115613c7c57613c7b61361a565b5b613c868254613934565b613c91828285613bcd565b600060209050601f831160018114613cc45760008415613cb2578287015190505b613cbc8582613c3e565b865550613d24565b601f198416613cd286613aae565b60005b82811015613cfa57848901518255600182019150602085019450602081019050613cd5565b86831015613d175784890151613d13601f891682613c20565b8355505b6001600288020188555050505b505050505050565b600081905092915050565b6000613d4282612f84565b613d4c8185613d2c565b9350613d5c818560208601612fa0565b80840191505092915050565b6000613d748285613d37565b9150613d808284613d37565b91508190509392505050565b7f566f6365204e414f20706f6465206174616361722061207369206d65736d6f00600082015250565b6000613dc2601f83612f8f565b9150613dcd82613d8c565b602082019050919050565b60006020820190508181036000830152613df181613db5565b9050919050565b6000613e0382613170565b915063ffffffff8203613e1957613e18613a37565b5b600182019050919050565b6000613e2f8261318f565b915061ffff8203613e4357613e42613a37565b5b600182019050919050565b7f4e487b7100000000000000000000000000000000000000000000000000000000600052601260045260246000fd5b6000613e8882613036565b9150613e9383613036565b925082613ea357613ea2613e4e565b5b828206905092915050565b6000613eb982613036565b9150613ec483613036565b9250828203905081811115613edc57613edb613a37565b5b92915050565b600081519050919050565b600082825260208201905092915050565b6000613f0982613ee2565b613f138185613eed565b9350613f23818560208601612fa0565b613f2c81612fca565b840191505092915050565b6000608082019050613f4c60008301876130cb565b613f5960208301866130cb565b613f666040830185613161565b8181036060830152613f788184613efe565b905095945050505050565b600081519050613f9281612ef5565b92915050565b600060208284031215613fae57613fad612ebf565b5b6000613fbc84828501613f83565b91505092915050565b6000819050919050565b613fe0613fdb82613036565b613fc5565b82525050565b60008160601b9050919050565b6000613ffe82613fe6565b9050919050565b600061401082613ff3565b9050919050565b614028614023826130b9565b614005565b82525050565b600061403a8286613fcf565b60208201915061404a8285614017565b60148201915061405a8284613fcf565b602082019150819050949350505050565b7f4e6f742052656164790000000000000000000000000000000000000000000000600082015250565b60006140a1600983612f8f565b91506140ac8261406b565b602082019050919050565b600060208201905081810360008301526140d081614094565b9050919050565b60006140e282613036565b91506140ed83613036565b925082820190508082111561410557614104613a37565b5b92915050565b600061411682613036565b915061412183613036565b92508261413157614130613e4e565b5b828204905092915050565b7f6b69747479000000000000000000000000000000000000000000000000000000600082015250565b6000614172600583613d2c565b915061417d8261413c565b600582019050919050565b600061419382614165565b9150819050919050565b60006141a98284613d37565b915081905092915050565b7f4d6178207065722057616c6c6574204578636565646564000000000000000000600082015250565b60006141ea601783612f8f565b91506141f5826141b4565b602082019050919050565b60006020820190508181036000830152614219816141dd565b9050919050565b60006060820190506142356000830186613161565b81810360208301526142478185612fdb565b90506142566040830184613161565b949350505050565b600060408201905061427360008301856130cb565b6142806020830184613161565b939250505056fea2646970667358221220097fb00cc5e52833ff40dba30c8a46b107860b16e20c678f667471fb499993f064736f6c63430008140033",
	"linkReferences": {},
	"deployedLinkReferences": {}
}